:100000000C9434000C9446000C9446000C9446006A
:100010000C9446000C9446000C9446000C94460048
:100020000C9446000C9446000C9446000C94460038
:100030000C9446000C9446000C9446000C94460028
:100040000C941F010C9446000C9446000C9446003E
:100050000C9446000C9446000C9446000C94460008
:100060000C9446000C94460011241FBECFEFD8E03C
:10007000DEBFCDBF21E0A0E0B1E001C01D92AD30F8
:10008000B207E1F70E9469010C9455020C9400003C
:100090009C0124513109672B09F44BC026303105EE
:1000A00050F488B141E050E001C0440F2A95EAF7CE
:1000B000842B88B908958830910558F49BB121E0CC
:1000C00030E001C0220F8A95EAF7892F822B8BB985
:1000D0000895089786309105C8F595B121E030E084
:1000E00001C0220F8A95EAF7892F822B85B90895DE
:1000F0008830910568F44BB121E030E0B90102C0CD
:10010000660F771F8A95E2F7CB0180958423DFCFB6
:10011000089786309105D0F445B121E030E0B9016F
:1001200002C0660F771F8A95E2F7CB018095842382
:10013000DDCF26303105E0F638B181E090E001C036
:10014000880F2A95EAF780958323B3CF08959C0101
:10015000245131092630310590F446B181E090E018
:10016000022E02C0880F991F0A94E2F750E0842300
:10017000952302C0959587952A95E2F708958830D2
:100180009105A0F449B121E030E0082E02C0220F11
:10019000331F0A94E2F750E024233523A90102C05B
:1001A000559547958A95E2F7CA0108959C01285014
:1001B00031092630310510F443B1D0CF08951F9393
:1001C000CF93DF9380910B0190910C010E94A700C7
:1001D000892BC1F78FEC90E00197F1F700C0000088
:1001E00080910B0190910C010E94A700EC01892BDA
:1001F00011F58FE891E00197F1F700C0000010E0E1
:1002000080910B0190910C010E94A7000C2E01C05F
:10021000880F0A94EAF7182B8FE891E00197F1F71D
:1002200000C000002196C830D10551F7812FDF9121
:10023000CF911F9108950E94DF0010E0F7CF1F9229
:100240000F920FB60F9211242F933F938F939F938A
:10025000AF93BF938091050190910601A091070192
:10026000B09108013091040123E0230F2D3758F598
:100270000196A11DB11D2093040180930501909367
:100280000601A0930701B0930801809100019091AD
:100290000101A0910201B09103010196A11DB11DC0
:1002A0008093000190930101A0930201B093030198
:1002B000BF91AF919F918F913F912F910F900FBE62
:1002C0000F901F90189526E8230F0296A11DB11DCF
:1002D000D2CF789484B5826084BD84B5816084BDBA
:1002E00085B5826085BD85B5816085BD80916E00D4
:1002F000816080936E001092810080918100826005
:100300008093810080918100816080938100809141
:1003100080008160809380008091B1008460809330
:10032000B1008091B00081608093B00080917A002C
:10033000846080937A0080917A00826080937A0052
:1003400080917A00816080937A0080917A00806841
:1003500080937A001092C10084E190E090930A01AA
:100360008093090189E090E090930C0180930B0148
:10037000389A219861E070E08091090190910A011A
:100380000E9448002FEF83E195E02150804090408B
:10039000E1F700C000002FEF81EE94E02150804093
:1003A0009040E1F700C0000001E010E080E0E82E9E
:1003B00080E0F82E0E94DF00C82E70E060E080919F
:1003C000090190910A010E9448008FE991E001978C
:1003D000F1F700C00000D0E0C0E00C2C000CDD08FC
:1003E000B8010C2E02C0660F771F0A94E2F76C2149
:1003F0007D218091090190910A010E9448008FE9B6
:1004000091E00197F1F700C000002196C830D105B6
:1004100039F761E070E08091090190910A010E9432
:1004200048008FE99FE00197F1F700C0000070E0FD
:1004300060E08091090190910A010E9448008FE9D3
:1004400091E00197F1F700C00000D0E0C0E0B801F2
:100450000C2E02C0660F771F0A94E2F76D707727A3
:100460008091090190910A010E9448008FE991E072
:100470000197F1F700C000002196C830D10539F787
:1004800061E070E08091090190910A010E944800AA
:100490008FE991E00197F1F700C00000E114F10449
:0E04A00009F488CF0E94000085CFF894FFCFAA
:107E0000112484B714BE81FFF0D085E080938100F7
:107E100082E08093C00088E18093C10086E0809377
:107E2000C20080E18093C4008EE0C9D0259A86E02C
:107E300020E33CEF91E0309385002093840096BBD3
:107E4000B09BFECF1D9AA8958150A9F7CC24DD24C4
:107E500088248394B5E0AB2EA1E19A2EF3E0BF2EE7
:107E6000A2D0813461F49FD0082FAFD0023811F036
:107E7000013811F484E001C083E08DD089C08234E0
:107E800011F484E103C0853419F485E0A6D080C0E4
:107E9000853579F488D0E82EFF2485D0082F10E0AE
:107EA000102F00270E291F29000F111F8ED06801E7
:107EB0006FC0863521F484E090D080E0DECF843638
:107EC00009F040C070D06FD0082F6DD080E0C81688
:107ED00080E7D80618F4F601B7BEE895C0E0D1E017
:107EE00062D089930C17E1F7F0E0CF16F0E7DF06D8
:107EF00018F0F601B7BEE89568D007B600FCFDCFD4
:107F0000A601A0E0B1E02C9130E011968C91119780
:107F100090E0982F8827822B932B1296FA010C0160
:107F200087BEE89511244E5F5F4FF1E0A038BF0790
:107F300051F7F601A7BEE89507B600FCFDCF97BE46
:107F4000E89526C08437B1F42ED02DD0F82E2BD052
:107F50003CD0F601EF2C8F010F5F1F4F84911BD097
:107F6000EA94F801C1F70894C11CD11CFA94CF0C13
:107F7000D11C0EC0853739F428D08EE10CD085E9AC
:107F80000AD08FE07ACF813511F488E018D01DD067
:107F900080E101D065CF982F8091C00085FFFCCF94
:107FA0009093C60008958091C00087FFFCCF809118
:107FB000C00084FD01C0A8958091C6000895E0E648
:107FC000F0E098E1908380830895EDDF803219F02E
:107FD00088E0F5DFFFCF84E1DECF1F93182FE3DFCA
:107FE0001150E9F7F2DF1F91089580E0E8DFEE27F6
:047FF000FF270994CA
:027FFE00040479
:0400000300007E007B
:00000001FF
