:100000000C9434000C9446000C9446000C9446006A
:100010000C9446000C9446000C9446000C94460048
:100020000C9446000C9446000C9446000C94460038
:100030000C9446000C9446000C9446000C94460028
:100040000C9448000C9492000C9446000C944600CA
:100050000C9446000C9446000C9446000C94460008
:100060000C9446000C94460011241FBECFEFD8E03C
:10007000DEBFCDBF21E0A0E0B1E001C01D92AA30FB
:10008000B207E1F70E94B8000C9444010C94000000
:100090001F920F920FB60F9211242F933F938F93BD
:1000A0009F93AF93BF938091060190910701A09118
:1000B0000801B09109013091050123E0230F2D378C
:1000C00020F40196A11DB11D05C026E8230F02965C
:1000D000A11DB11D20930501809306019093070196
:1000E000A0930801B0930901809101019091020150
:1000F000A0910301B09104010196A11DB11D80934F
:10010000010190930201A0930301B0930401BF91F8
:10011000AF919F918F913F912F910F900FBE0F90B4
:100120001F9018951F920F920FB60F9211248F9364
:100130009F93EF93FF938EB580930001E6ECF0E080
:1001400080838FE39FE10197F1F700C000008DE00D
:1001500080838FE39FE10197F1F700C00000FF91DA
:10016000EF919F918F910F900FBE0F901F90189558
:10017000789484B5826084BD84B5816084BD85B582
:10018000826085BD85B5816085BD80916E0081608E
:1001900080936E0010928100809181008260809334
:1001A0008100809181008160809381008091800036
:1001B0008160809380008091B10084608093B10061
:1001C0008091B00081608093B00080917A0084605B
:1001D00080937A0080917A00826080937A00809187
:1001E0007A00816080937A0080917A0080688093A1
:1001F0007A001092C1008CB580648CBD8CB580688B
:100200008CBD8CB58F7E8CBD87E68093C400109228
:10021000C5008091C10088608093C1008091C100B9
:100220008B7F8093C1008091C2008F7B8093C2003E
:100230008091C2008F778093C2008091C2008F7E30
:100240008093C2008091C2008F7D8093C200809114
:10025000C20084608093C2008091C200826080935B
:10026000C2008091C200877F8093C2008091C0004D
:1002700080648093C0007894249AC0E0D0E02097F6
:0C028000F1F30E940000FBCFF894FFCFC8
:00000001FF
