:100000000C9435000C9452000C9452000C94520045
:100010000C9452000C9452000C9452000C94520018
:100020000C9452000C9452000C9452000C94520008
:100030000C9452000C9452000C9452000C945200F8
:100040000C9479000C9452000C94E0000C94520033
:100050000C9452000C94C3000C9452000C94520067
:100060000C9452000C9452003A0211241FBECFEFA0
:10007000D8E0DEBFCDBF21E0A0E0B1E001C01D921D
:10008000A137B207E1F710E0C5E3D0E004C0219743
:10009000FE010E947402C433D107C9F70E94120105
:1000A0000C947A020C9400003FB7F89480916B0195
:1000B00090916C01A0916D01B0916E0126B5A89B45
:1000C00005C02F3F19F00196A11DB11D3FBFBA2FEA
:1000D000A92F982F8827BC01CD01620F711D811DAA
:1000E000911D42E0660F771F881F991F4A95D1F72F
:1000F00008951F920F920FB60F9211242F933F93E2
:100100008F939F93AF93BF93809167019091680104
:10011000A0916901B0916A013091660123E0230F3B
:100120002D3758F50196A11DB11D209366018093CE
:10013000670190936801A0936901B0936A0180916F
:100140006B0190916C01A0916D01B0916E010196CF
:10015000A11DB11D80936B0190936C01A0936D0163
:10016000B0936E01BF91AF919F918F913F912F916D
:100170000F900FBE0F901F90189526E8230F029640
:10018000A11DB11DD2CF1F920F920FB60F92112455
:100190002F938F939F93209178008091790090E026
:1001A000982F8827820F911D9093700180936F0183
:1001B0009F918F912F910F900FBE0F901F901895C8
:1001C0001F920F920FB60F9211242F938F939F932C
:1001D000AF93BF93CF93DF93EF93FF93E1ECF0E006
:1001E00080818F7780832091C600A0E0B1E08D915F
:1001F0009C911197EC01C050DF4F2A8301968D939B
:100200009C93808180688083FF91EF91DF91CF91F3
:10021000BF91AF919F918F912F910F900FBE0F9033
:100220001F901895CF93DF93CDB7DEB72A970FB6FF
:10023000F894DEBF0FBECDBF789484B5826084BDD4
:1002400084B5816084BD85B5826085BD85B58160DA
:1002500085BD80916E00816080936E001092810058
:100260008091810082608093810080918100816013
:1002700080938100809180008160809380008091D4
:10028000B10084608093B1008091B0008160809360
:10029000B00080917A00846080937A0080917A0027
:1002A000826080937A0080917A00816080937A00E6
:1002B00080917A00806880937A001092C1007894CF
:1002C00087E68093C4001092C5008091C1008B7FA7
:1002D0008093C1008091C2008F7B8093C200809187
:1002E000C2008F778093C2008091C2008F7E80937E
:1002F000C2008091C2008F7D8093C2008091C200B5
:1003000084608093C2008091C20082608093C200AA
:100310008091C200877F8093C2008091C100886174
:100320008093C1008091C10080688093C1008E01DC
:100330000F5F1F4F20E0E22E20E0F22E80917A0026
:10034000806880937A0080917C008F7D80937C0010
:1003500080917A00846080937A0080917A008D7F0A
:1003600080937A0080917A008E7F80937A008091CA
:100370007C008F7780937C0080917C0080648093E8
:100380007C0080917A00806280937A0080917C006A
:10039000816080937C0080917C008D7F80937C00C5
:1003A00080917C00846080937C0080917C00877FBA
:1003B00080937C0080917B00846080937B0080919F
:1003C0007B008D7F80937B0080917B008E7F80936C
:1003D0007B00789480917A00886080937A000E94F4
:1003E00054004B015C0192E0492E512C612C712C80
:1003F0000E945400681979098A099B09683E734074
:1004000081059105A8F328EE820E23E0921EA11C1F
:10041000B11C4A9445284628472829F0412C512CE4
:1004200032014394E5CF4AE0B80180916F01909189
:1004300070010E943F02D801F80101900020E9F705
:100440003197E01BF10BCD01801B910B8E179F079D
:1004500050F48D918093C6008FE39FE10197F1F7EF
:1004600000C00000E9CFE114F10409F467CF0E9455
:10047000000064CF10920101109200010895BB2783
:100480004A3031F4992322F4BDE2909581959F4F33
:100490000C944B02BB27FB015527AA27880F991FF5
:1004A000AA1FA41710F0A41B83955051B9F7A05DA3
:1004B000AA3308F0A95DA193009779F7B111B19320
:1004C0001192CB010C946402DC01FC01672F719145
:1004D0007723E1F7329704C07C916D93708362912A
:1004E000AE17BF07C8F30895EE0FFF1F0590F491F4
:0804F000E02D0994F894FFCF00
:00000001FF
