:100000000C9435000C9452000C9452000C94520045
:100010000C9452000C9452000C9452000C94520018
:100020000C9452000C9452000C9452000C94520008
:100030000C9452000C9452000C9413010C94E9009F
:100040000C94B3000C9452000C944D010C9452008B
:100050000C9452000C943D010C9452000C945200EC
:100060000C9452000C9452007F0111241FBECFEF5C
:10007000D8E0DEBFCDBF21E0A0E0B1E001C01D921D
:10008000AA36B207E1F710E0C5E3D0E004C021973B
:10009000FE010E94CD01C433D107C9F70E9484013B
:1000A0000C94D3010C9400009C0124513109672B5E
:1000B00009F44BC02630310550F488B141E050E0DE
:1000C00001C0440F2A95EAF7842B88B90895883037
:1000D000910558F49BB121E030E001C0220F8A95D0
:1000E000EAF7892F822B8BB90895089786309105FE
:1000F000C8F595B121E030E001C0220F8A95EAF7FA
:10010000892F822B85B908958830910568F44BB109
:1001100021E030E0B90102C0660F771F8A95E2F74F
:10012000CB0180958423DFCF089786309105D0F4EA
:1001300045B121E030E0B90102C0660F771F8A9512
:10014000E2F7CB0180958423DDCF26303105E0F640
:1001500038B181E090E001C0880F2A95EAF78095D8
:100160008323B3CF08951F920F920FB60F921124DD
:100170002F933F934F935F936F937F938F939F93AF
:10018000AF93BF93EF93FF9380910201909103018E
:10019000009721F061E070E00E945400809100011E
:1001A00090910101009721F061E070E00E945400FD
:1001B000FF91EF91BF91AF919F918F917F916F913F
:1001C0005F914F913F912F910F900FBE0F901F9015
:1001D00018951F920F920FB60F9211242F933F93F1
:1001E0004F935F936F937F938F939F93AF93BF933F
:1001F000EF93FF9370E060E0809100019091010126
:100200000E945400FF91EF91BF91AF919F918F9108
:100210007F916F915F914F913F912F910F900FBE02
:100220000F901F9018951F920F920FB60F921124E6
:100230002F933F934F935F936F937F938F939F93EE
:10024000AF93BF93EF93FF9370E060E08091020162
:10025000909103010E945400FF91EF91BF91AF91E3
:100260009F918F917F916F915F914F913F912F91CE
:100270000F900FBE0F901F9018951F920F920FB600
:100280000F9211248F9380917800809179008F9143
:100290000F900FBE0F901F9018951F920F920FB6E0
:1002A0000F9211242F938F939F93AF93BF93CF936C
:1002B000DF93EF93FF93E1ECF0E080818F77808311
:1002C0002091C600A4E0B1E08D919C911197EC01C2
:1002D000CC5FDE4F2A8301968D939C93808180684A
:1002E0008083FF91EF91DF91CF91BF91AF919F916B
:1002F0008F912F910F900FBE0F901F901895109215
:10030000050110920401089546E050E06BE223E0FD
:1003100030E099EE7894509301014093000184B548
:100320008F7E84BD84B5806284BD84B58B6084BDBE
:1003300085B5816085BD85B5826085BD85B58B7FBE
:1003400085BD68BD80916E00856080936E0085B329
:10035000856085BB569A78943093030120930201FF
:1003600084B58F7B84BD84B5806884BD84B58B6083
:1003700084BD85B5816085BD85B5826085BD85B547
:100380008B7F85BD97BD80916E00836080936E00EA
:1003900085B3836085BB539ABDCFEE0FFF1F0590D9
:0A03A000F491E02D0994F894FFCFCA
:00000001FF
