:100000000C9435000C9452000C9452000C94520045
:100010000C9452000C9452000C9452000C94520018
:100020000C9452000C9452000C9452000C94520008
:100030000C9452000C9452000C9413010C94E9009F
:100040000C94B3000C9452000C944D010C9452008B
:100050000C9452000C943D010C9452000C945200EC
:100060000C9452000C9452007F0111241FBECFEF5C
:10007000D8E0DEBFCDBF21E0A0E0B1E001C01D921D
:10008000AA36B207E1F710E0C5E3D0E004C021973B
:10009000FE010E94CD01C433D107C9F70E9484013B
:1000A0000C94D3010C9400009C0124513109672B5E
:1000B00009F44BC02630310550F488B141E050E0DE
:1000C00001C0440F2A95EAF7842B88B90895883037
:1000D000910558F49BB121E030E001C0220F8A95D0
:1000E000EAF7892F822B8BB90895089786309105FE
:1000F000C8F595B121E030E001C0220F8A95EAF7FA
:10010000892F822B85B908958830910568F44BB109
:1001100021E030E0B90102C0660F771F8A95E2F74F
:10012000CB0180958423DFCF089786309105D0F4EA
:1001300045B121E030E0B90102C0660F771F8A9512
:10014000E2F7CB0180958423DDCF26303105E0F640
:1001500038B181E090E001C0880F2A95EAF78095D8
:100160008323B3CF08951F920F920FB60F921124DD
:100170002F933F934F935F936F937F938F939F93AF
:10018000AF93BF93EF93FF9380910201909103018E
:10019000009721F061E070E00E945400809100011E
:1001A00090910101009721F061E070E00E945400FD
:1001B000FF91EF91BF91AF919F918F917F916F913F
:1001C0005F914F913F912F910F900FBE0F901F9015
:1001D00018951F920F920FB60F9211242F933F93F1
:1001E0004F935F936F937F938F939F93AF93BF933F
:1001F000EF93FF9370E060E0809100019091010126
:100200000E945400FF91EF91BF91AF919F918F9108
:100210007F916F915F914F913F912F910F900FBE02
:100220000F901F9018951F920F920FB60F921124E6
:100230002F933F934F935F936F937F938F939F93EE
:10024000AF93BF93EF93FF9370E060E08091020162
:10025000909103010E945400FF91EF91BF91AF91E3
:100260009F918F917F916F915F914F913F912F91CE
:100270000F900FBE0F901F9018951F920F920FB600
:100280000F9211248F9380917800809179008F9143
:100290000F900FBE0F901F9018951F920F920FB6E0
:1002A0000F9211242F938F939F93AF93BF93CF936C
:1002B000DF93EF93FF93E1ECF0E080818F77808311
:1002C0002091C600A4E0B1E08D919C911197EC01C2
:1002D000CC5FDE4F2A8301968D939C93808180684A
:1002E0008083FF91EF91DF91CF91BF91AF919F916B
:1002F0008F912F910F900FBE0F901F901895109215
:10030000050110920401089546E050E06BE223E0FD
:1003100030E099EE7894509301014093000184B548
:100320008F7E84BD84B5806284BD84B58B6084BDBE
:1003300085B5816085BD85B5826085BD85B58B7FBE
:1003400085BD68BD80916E00856080936E0085B329
:10035000856085BB569A78943093030120930201FF
:1003600084B58F7B84BD84B5806884BD84B58B6083
:1003700084BD85B5816085BD85B5826085BD85B547
:100380008B7F85BD97BD80916E00836080936E00EA
:1003900085B3836085BB539ABDCFEE0FFF1F0590D9
:0A03A000F491E02D0994F894FFCFCA
:107E0000112484B714BE81FFF0D085E080938100F7
:107E100082E08093C00088E18093C10086E0809377
:107E2000C20080E18093C4008EE0C9D0259A86E02C
:107E300020E33CEF91E0309385002093840096BBD3
:107E4000B09BFECF1D9AA8958150A9F7CC24DD24C4
:107E500088248394B5E0AB2EA1E19A2EF3E0BF2EE7
:107E6000A2D0813461F49FD0082FAFD0023811F036
:107E7000013811F484E001C083E08DD089C08234E0
:107E800011F484E103C0853419F485E0A6D080C0E4
:107E9000853579F488D0E82EFF2485D0082F10E0AE
:107EA000102F00270E291F29000F111F8ED06801E7
:107EB0006FC0863521F484E090D080E0DECF843638
:107EC00009F040C070D06FD0082F6DD080E0C81688
:107ED00080E7D80618F4F601B7BEE895C0E0D1E017
:107EE00062D089930C17E1F7F0E0CF16F0E7DF06D8
:107EF00018F0F601B7BEE89568D007B600FCFDCFD4
:107F0000A601A0E0B1E02C9130E011968C91119780
:107F100090E0982F8827822B932B1296FA010C0160
:107F200087BEE89511244E5F5F4FF1E0A038BF0790
:107F300051F7F601A7BEE89507B600FCFDCF97BE46
:107F4000E89526C08437B1F42ED02DD0F82E2BD052
:107F50003CD0F601EF2C8F010F5F1F4F84911BD097
:107F6000EA94F801C1F70894C11CD11CFA94CF0C13
:107F7000D11C0EC0853739F428D08EE10CD085E9AC
:107F80000AD08FE07ACF813511F488E018D01DD067
:107F900080E101D065CF982F8091C00085FFFCCF94
:107FA0009093C60008958091C00087FFFCCF809118
:107FB000C00084FD01C0A8958091C6000895E0E648
:107FC000F0E098E1908380830895EDDF803219F02E
:107FD00088E0F5DFFFCF84E1DECF1F93182FE3DFCA
:107FE0001150E9F7F2DF1F91089580E0E8DFEE27F6
:047FF000FF270994CA
:027FFE00040479
:0400000300007E007B
:00000001FF
