:100000000C9434000C9446000C9446000C9446006A
:100010000C9446000C9446000C9446000C94460048
:100020000C9446000C9446000C9446000C94460038
:100030000C9446000C9446000C9446000C94460028
:100040000C9463000C9446000C9446000C944600FB
:100050000C9446000C9446000C9446000C94460008
:100060000C9446000C94460011241FBECFEFD8E03C
:10007000DEBFCDBF21E0A0E0B1E001C01D92AB30FA
:10008000B207E1F70E94AD000C9447010C94000008
:100090002FEF80E792E0215080409040E1F700C0D0
:1000A0000000289A2FEF80E792E021508040904096
:1000B000E1F700C0000028988FE39CE90197F1F771
:1000C00000C0000008951F920F920FB60F921124E6
:1000D0002F933F938F939F93AF93BF93809107018B
:1000E00090910801A0910901B0910A013091060197
:1000F00023E0230F2D3720F40196A11DB11D05C06B
:1001000026E8230F0296A11DB11D209306018093BE
:10011000070190930801A0930901B0930A0180910F
:10012000020190910301A0910401B0910501019693
:10013000A11DB11D8093020190930301A0930401BE
:10014000B0930501BF91AF919F918F913F912F91F6
:100150000F900FBE0F901F901895789484B5826011
:1001600084BD84B5816084BD85B5826085BD85B55B
:10017000816085BD80916E00816080936E001092D9
:100180008100809181008260809381008091810054
:1001900081608093810080918000816080938000E5
:1001A0008091B10084608093B1008091B000816043
:1001B0008093B00080917A00846080937A0080916F
:1001C0007A00826080937A0080917A0081608093C7
:1001D0007A0080917A00806880937A001092C10042
:1001E0008FEF8AB987E084B980E190E090930101B4
:1001F000809300012FEF89EF90E0215080409040E4
:10020000E1F700C0000015B880E28BB90E944800F9
:1002100080E88BB90E9448002FEF89EF90E02150D1
:1002200080409040E1F700C0000015B81BB80E9464
:10023000480080EF8BB90E9448002FEF89EF90E0D3
:10024000215080409040E1F700C0000015B81BB875
:100250000E94480080E18BB90E9448002FEF89EF8F
:1002600090E0215080409040E1F700C000002FEF67
:1002700080E792E0215080409040E1F700C000000C
:10028000C0E0D0E02097F1F30E940000FBCFF8948B
:02029000FFCF9E
:00000001FF
