:100000000C9434000C9446000C9446000C9446006A
:100010000C9446000C9446000C9446000C94460048
:100020000C9446000C9446000C9446000C94460038
:100030000C9446000C9446000C9446000C94460028
:100040000C9451000C9446000C9446000C9446000D
:100050000C9446000C9446000C9446000C94460008
:100060000C9446000C94460011241FBECFEFD8E03C
:10007000DEBFCDBF21E0A0E0B1E001C01D92AB30FA
:10008000B207E1F70E949B000C9407010C9400005A
:10009000289A8FE39CE90197F1F700C000002898A7
:1000A00008951F920F920FB60F9211242F933F9332
:1000B0008F939F93AF93BF93809107019091080115
:1000C000A0910901B0910A013091060123E0230FAC
:1000D0002D3720F40196A11DB11D05C026E8230F80
:1000E0000296A11DB11D20930601809307019093F4
:1000F0000801A0930901B0930A0180910201909137
:100100000301A0910401B09105010196A11DB11D4B
:100110008093020190930301A0930401B093050121
:10012000BF91AF919F918F913F912F910F900FBEF3
:100130000F901F901895789484B5826084BD84B523
:10014000816084BD85B5826085BD85B5816085BDD2
:1001500080916E00816080936E001092810080918A
:100160008100826080938100809181008160809312
:100170008100809180008160809380008091B10037
:1001800084608093B1008091B00081608093B00062
:1001900080917A00846080937A0080917A008260F6
:1001A00080937A0080917A00816080937A008091B8
:1001B0007A00806880937A001092C1008FEF8AB92C
:1001C00087E084B980E190E0909301018093000181
:1001D00015B888E38BB90E94480015B88FE08BB939
:1001E0000E94480015B881E08BB90E9448002FEFAB
:1001F00080E792E0215080409040E1F700C000008D
:10020000C0E0D0E02097F1F30E940000FBCFF8940B
:02021000FFCF1E
:00000001FF
